:100000000C941A010C9437010C9437010C943701AD
:100010000C9437010C9437010C9437010C94370180
:100020000C9439010C9437010C9437010C9437016E
:100030000C9437010C9437010C9437010C94370160
:100040000C9437010C9437010C9437010C94370150
:100050000C943701000000000000005F0000000762
:10006000000700147F147F14242A7F2A1223130808
:10007000646236495522500005030000001C2241ED
:10008000000041221C0014083E081408083E08081D
:1000900000503000000808080808006060000020D8
:1000A000100804023E5149453E00427F4000426133
:1000B0005149462141454B311814127F10274545BF
:1000C00045393C4A494930017109050336494949D6
:1000D00036064949291E0036360000005636000013
:1000E00008142241001414141414004122140802AC
:1000F00001510906324979413E7E1111117E7F4935
:100100004949363E414141227F4141221C7F4949B4
:1001100049417F090909013E4149497A7F08080898
:100120007F00417F41002040413F017F0814224170
:100130007F404040407F020C027F7F0408107F3EDA
:100140004141413E7F090909063E4151215E7F0937
:10015000192946464949493101017F01013F404083
:10016000403F1F2040201F3F4038403F6314081489
:100170006307087008076151494543007F4141000A
:1001800002040810200041417F00040201020440E3
:1001900040404040000102040020545454787F48FD
:1001A0004444383844444420384444487F38545404
:1001B0005418087E0901020C5252523E7F08040472
:1001C0007800447D40002040443D007F10284400DA
:1001D00000417F40007C041804787C0804047838CF
:1001E000444444387C14141408081414187C7C0803
:1001F0000404084854545420043F4440203C4040E8
:10020000207C1C2040201C3C4030403C44281028CE
:10021000440C5050503C4464544C44000836410057
:1002200000007F0000004136080010080810080098
:100230000000000011241FBECFE5D4E0DEBFCDBF1B
:1002400010E0A0E6B0E0ECE7F3E202C005900D920A
:10025000AA3CB107D9F722E0AAECB0E001C01D9298
:10026000AD3FB207E1F70E947D0F0C94BC110C94D6
:1002700000001F920F920FB60F9211248F939F933D
:100280008091FC028F5F8093FC0280E39CEF9DBD18
:100290008CBD9F918F910F900FBE0F901F9018955E
:1002A00085E08EBD80E39CEF9DBD8CBD84E089BF61
:1002B0001092FC0208950E9411100E94521061E0F9
:1002C0008FE00E94511162E082E690E00E943E11B0
:1002D00064E187E00E94511161E088E690E00E94AD
:1002E0003E110E9456112FE38DE093E02150804093
:1002F0009040E1F700C000000E94521060E080E0F2
:100300000E94511161E085E790E00E943E1169E191
:1003100087E00E94511161E080E890E00E943E1168
:1003200061E286E40E94511161E08DE890E00E9454
:100330003E110E945611089587EA91E60197F1F760
:1003400000C000000E94521060E080E00E94511145
:1003500061E08FE890E00E943E1168E186E20E9431
:10036000511162E08EE990E00E943E110E94561108
:100370009FED22E282E0915020408040E1F700C0F2
:1003800000000E94521060E080E00E94511161E084
:100390008FE890E00E943E1168E186E20E945111D0
:1003A00062E080EA90E00E943E110E9456119FEDAB
:1003B00022E282E0915020408040E1F700C000003E
:1003C00060E080E00E94511161E08FE890E00E94BF
:1003D0003E1168E186E20E94511162E082EA90E0FB
:1003E0000E943E110E9456119FED22E282E0915040
:1003F00020408040E1F700C000000E9452100E949F
:100400005611089540E067E181E00E94651040E0E8
:1004100068E181E00E94651040E069E181E00E94AE
:10042000651040E06AE181E00E94651040E06BE108
:1004300081E00E94651040E06CE181E00E9465105F
:1004400040E06DE181E00E94651040E06EE181E0F6
:100450000E94651040E06FE181E00E94651040E07D
:1004600067E182E00E94651040E067E183E00E945E
:10047000651040E067E184E00E94651040E067E1BC
:1004800085E00E94651040E067E186E00E9465100B
:1004900040E067E187E00E94651040E067E188E0A6
:1004A0000E94651040E067E189E00E94651040E02D
:1004B00067E18AE00E94651040E067E18BE00E94FE
:1004C000651040E067E18CE00E94651040E067E164
:1004D0008DE00E94651040E067E18EE00E946510AB
:1004E00040E067E18FE00E94651040E067E180E155
:1004F0000E94651040E067E181E10E94651040E0E4
:1005000067E182E10E94651040E067E183E10E94BB
:10051000651040E068E182E00E94651040E068E11B
:1005200083E00E94651040E068E184E00E9465106D
:1005300040E068E185E00E94651040E068E186E007
:100540000E94651040E068E187E00E94651040E08D
:1005500068E188E00E94651040E068E189E00E945F
:10056000651040E068E18AE00E94651040E068E1C3
:100570008BE00E94651040E068E18CE00E9465100D
:1005800040E068E18DE00E94651040E068E18EE0A7
:100590000E94651040E068E18FE00E94651040E035
:1005A00068E180E10E94651040E068E181E10E941D
:1005B000651040E068E182E10E94651040E068E17A
:1005C00083E10E94651040E069E182E00E946510CD
:1005D00040E069E183E00E94651040E069E184E069
:1005E0000E94651040E069E185E00E94651040E0EE
:1005F00069E186E00E94651040E069E187E00E94C1
:10060000651040E069E188E00E94651040E069E122
:1006100089E00E94651040E069E18AE00E9465106F
:1006200040E069E18BE00E94651040E069E18CE008
:100630000E94651040E069E18DE00E94651040E095
:1006400069E18EE00E94651040E069E18FE00E9460
:10065000651040E069E180E10E94651040E069E1D9
:1006600081E10E94651040E069E182E10E9465102D
:1006700040E069E183E10E94651040E06AE182E0C8
:100680000E94651040E06AE183E00E94651040E04E
:100690006AE184E00E94651040E06AE185E00E9422
:1006A000651040E06AE186E00E94651040E06AE182
:1006B00087E00E94651040E06AE188E00E946510D2
:1006C00040E06AE189E00E94651040E06AE18AE06A
:1006D0000E94651040E06AE18BE00E94651040E0F6
:1006E0006AE18CE00E94651040E06AE18DE00E94C2
:1006F000651040E06AE18EE00E94651040E06AE12A
:100700008FE00E94651040E06AE180E10E94651080
:1007100040E06AE181E10E94651040E06AE182E127
:100720000E94651040E06AE183E10E94651040E0AC
:100730006BE182E00E94651040E06BE183E00E9483
:10074000651040E06BE184E00E94651040E06BE1E1
:1007500085E00E94651040E06BE186E00E94651034
:1007600040E06BE187E00E94651040E06BE188E0CB
:100770000E94651040E06BE189E00E94651040E056
:100780006BE18AE00E94651040E06BE18BE00E9423
:10079000651040E06BE18CE00E94651040E06BE189
:1007A0008DE00E94651040E06BE18EE00E946510D4
:1007B00040E06BE18FE00E94651040E06BE180E17A
:1007C0000E94651040E06BE181E10E94651040E00D
:1007D0006BE182E10E94651040E06BE183E10E94E1
:1007E000651040E06CE182E00E94651040E06CE141
:1007F00083E00E94651040E06CE184E00E94651097
:1008000040E06CE185E00E94651040E06CE186E02C
:100810000E94651040E06CE187E00E94651040E0B6
:100820006CE188E00E94651040E06CE189E00E9484
:10083000651040E06CE18AE00E94651040E06CE1E8
:100840008BE00E94651040E06CE18CE00E94651036
:1008500040E06CE18DE00E94651040E06CE18EE0CC
:100860000E94651040E06CE18FE00E94651040E05E
:100870006CE180E10E94651040E06CE181E10E9442
:10088000651040E06CE182E10E94651040E06CE19F
:1008900083E10E94651040E06DE182E00E946510F6
:1008A00040E06DE183E00E94651040E06DE184E08E
:1008B0000E94651040E06DE185E00E94651040E017
:1008C0006DE186E00E94651040E06DE187E00E94E6
:1008D000651040E06DE188E00E94651040E06DE148
:1008E00089E00E94651040E06DE18AE00E94651099
:1008F00040E06DE18BE00E94651040E06DE18CE02E
:100900000E94651040E06DE18DE00E94651040E0BE
:100910006DE18EE00E94651040E06DE18FE00E9485
:10092000651040E06DE180E10E94651040E06DE1FE
:1009300081E10E94651040E06DE182E10E94651056
:1009400040E06DE183E10E94651040E06EE182E0ED
:100950000E94651040E06EE183E00E94651040E077
:100960006EE184E00E94651040E06EE185E00E9447
:10097000651040E06EE186E00E94651040E06EE1A7
:1009800087E00E94651040E06EE188E00E946510FB
:1009900040E06EE189E00E94651040E06EE18AE08F
:1009A0000E94651040E06EE18BE00E94651040E01F
:1009B0006EE18CE00E94651040E06EE18DE00E94E7
:1009C000651040E06EE18EE00E94651040E06EE14F
:1009D0008FE00E94651040E06EE180E10E946510AA
:1009E00040E06EE181E10E94651040E06EE182E14D
:1009F0000E94651040E06EE183E10E94651040E0D6
:100A00006FE182E00E94651040E06FE183E00E94A8
:100A1000651040E06FE184E00E94651040E06FE106
:100A200085E00E94651040E06FE186E00E9465105D
:100A300040E06FE187E00E94651040E06FE188E0F0
:100A40000E94651040E06FE189E00E94651040E07F
:100A50006FE18AE00E94651040E06FE18BE00E9448
:100A6000651040E06FE18CE00E94651040E06FE1AE
:100A70008DE00E94651040E06FE18EE00E946510FD
:100A800040E06FE18FE00E94651040E06FE180E19F
:100A90000E94651040E06FE181E10E94651040E036
:100AA0006FE182E10E94651040E06FE183E10E9406
:100AB00065100E9456110895C99924C08091DA00EA
:100AC0009091DB004E9708F04CC00E94020280918A
:100AD000DA009091DB0001969093DB008093DA00BE
:100AE0004AE050E063ED70E00E947C1169E18AE029
:100AF0000E94511161E083ED90E00E943E110E943E
:100B000056110895CA9923C08091EC009091ED0090
:100B1000892B39F10E9402028091DA009091DB006A
:100B200001979093DB008093DA004AE050E063ED98
:100B300070E00E947C1169E18AE00E94511161E03D
:100B400083ED90E00E943E110E9456110895CB99CA
:100B500008C084E090E090936100809360000E9460
:100B60005210089540E067E180E20E94651040E085
:100B700068E180E20E94651040E069E180E20E9445
:100B8000651040E06AE180E20E94651040E06BE1A0
:100B900080E20E94651040E06CE180E20E946510F6
:100BA00040E06DE180E20E94651040E06EE180E28D
:100BB0000E94651040E06FE180E20E94651040E015
:100BC00067E181E20E94651040E068E181E20E94F5
:100BD000651040E069E181E20E94651040E06AE151
:100BE00081E20E94651040E06BE181E20E946510A5
:100BF00040E06CE181E20E94651040E06DE181E23D
:100C00000E94651040E06EE181E20E94651040E0C4
:100C10006FE181E20E94651040E067E182E20E949C
:100C2000651040E068E182E20E94651040E069E101
:100C300082E20E94651040E06AE182E20E94651053
:100C400040E06BE182E20E94651040E06CE182E2EC
:100C50000E94651040E06DE182E20E94651040E074
:100C60006EE182E20E94651040E06FE182E20E9444
:100C7000651040E067E183E20E94651040E068E1B2
:100C800083E20E94651040E069E183E20E94651002
:100C900040E06AE183E20E94651040E06BE183E29C
:100CA0000E94651040E06CE183E20E94651040E024
:100CB0006DE183E20E94651040E06EE183E20E94F4
:100CC000651040E06FE183E20E94651040E067E15B
:100CD00084E20E94651040E068E184E20E946510B1
:100CE00040E069E184E20E94651040E06AE184E24C
:100CF0000E94651040E06BE184E20E94651040E0D4
:100D00006CE184E20E94651040E06DE184E20E94A3
:100D1000651040E06EE184E20E94651040E06FE102
:100D200084E20E94651040E067E185E20E94651060
:100D300040E068E185E20E94651040E069E185E2FB
:100D40000E94651040E06AE185E20E94651040E083
:100D50006BE185E20E94651040E06CE185E20E9453
:100D6000651040E06DE185E20E94651040E06EE1B3
:100D700085E20E94651040E06FE185E20E94651007
:100D800040E067E186E20E94651040E068E186E2AB
:100D90000E94651040E069E186E20E94651040E033
:100DA0006AE186E20E94651040E06BE186E20E9403
:100DB000651040E06CE186E20E94651040E06DE164
:100DC00086E20E94651040E06EE186E20E946510B6
:100DD00040E06FE186E20E94651040E067E187E253
:100DE0000E94651040E068E187E20E94651040E0E3
:100DF00069E187E20E94651040E06AE187E20E94B3
:100E0000651040E06BE187E20E94651040E06CE114
:100E100087E20E94651040E06DE187E20E94651064
:100E200040E06EE187E20E94651040E06FE187E2FA
:100E30000E94651040E067E188E20E94651040E092
:100E400068E188E20E94651040E069E188E20E9462
:100E5000651040E06AE188E20E94651040E06BE1C5
:100E600088E20E94651040E06CE188E20E94651013
:100E700040E06DE188E20E94651040E06EE188E2AA
:100E80000E94651040E06FE188E20E94651040E03A
:100E900067E189E20E94651040E068E189E20E9412
:100EA000651040E069E189E20E94651040E06AE176
:100EB00089E20E94651040E06BE189E20E946510C2
:100EC00040E06CE189E20E94651040E06DE189E25A
:100ED0000E94651040E06EE189E20E94651040E0EA
:100EE0006FE189E20E94651040E067E18AE20E94BA
:100EF000651040E068E18AE20E94651040E069E127
:100F00008AE20E94651040E06AE18AE20E94651070
:100F100040E06BE18AE20E94651040E06CE18AE209
:100F20000E94651040E06DE18AE20E94651040E099
:100F30006EE18AE20E94651040E06FE18AE20E9461
:100F4000651040E067E18BE20E94651040E068E1D7
:100F50008BE20E94651040E069E18BE20E9465101F
:100F600040E06AE18BE20E94651040E06BE18BE2B9
:100F70000E94651040E06CE18BE20E94651040E049
:100F80006DE18BE20E94651040E06EE18BE20E9411
:100F9000651040E06FE18BE20E94651040E067E180
:100FA0008CE20E94651040E068E18CE20E946510CE
:100FB00040E069E18CE20E94651040E06AE18CE269
:100FC0000E94651040E06BE18CE20E94651040E0F9
:100FD0006CE18CE20E94651040E06DE18CE20E94C1
:100FE000651040E06EE18CE20E94651040E06FE128
:100FF0008CE20E94651040E067E18DE20E9465107E
:1010000040E068E18DE20E94651040E069E18DE218
:101010000E94651040E06AE18DE20E94651040E0A8
:101020006BE18DE20E94651040E06CE18DE20E9470
:10103000651040E06DE18DE20E94651040E06EE1D8
:101040008DE20E94651040E06FE18DE20E94651024
:1010500040E067E18EE20E94651040E068E18EE2C8
:101060000E94651040E069E18EE20E94651040E058
:101070006AE18EE20E94651040E06BE18EE20E9420
:10108000651040E06CE18EE20E94651040E06DE189
:101090008EE20E94651040E06EE18EE20E946510D3
:1010A00040E06FE18EE20E94651040E067E18FE270
:1010B0000E94651040E068E18FE20E94651040E008
:1010C00069E18FE20E94651040E06AE18FE20E94D0
:1010D000651040E06BE18FE20E94651040E06CE13A
:1010E0008FE20E94651040E06DE18FE20E94651082
:1010F00040E06EE18FE20E94651040E06FE18FE218
:101100000E94651040E067E180E30E94651040E0C6
:1011100068E180E30E94651040E069E180E30E949D
:10112000651040E06AE180E30E94651040E06BE1F9
:1011300080E30E94651040E06CE180E30E9465104E
:1011400040E06DE180E30E94651040E06EE180E3E5
:101150000E94651040E06FE180E30E94651040E06E
:1011600067E181E30E94651040E068E181E30E944D
:10117000651040E069E181E30E94651040E06AE1AA
:1011800081E30E94651040E06BE181E30E946510FD
:1011900040E06CE181E30E94651040E06DE181E395
:1011A0000E94651040E06EE181E30E94651040E01E
:1011B0006FE181E30E94651040E067E182E30E94F5
:1011C000651040E068E182E30E94651040E069E15B
:1011D00082E30E94651040E06AE182E30E946510AC
:1011E00040E06BE182E30E94651040E06CE182E345
:1011F0000E94651040E06DE182E30E94651040E0CE
:101200006EE182E30E94651040E06FE182E30E949C
:10121000651040E067E183E30E94651040E068E10B
:1012200083E30E94651040E069E183E30E9465105A
:1012300040E06AE183E30E94651040E06BE183E3F4
:101240000E94651040E06CE183E30E94651040E07D
:101250006DE183E30E94651040E06EE183E30E944C
:10126000651040E06FE183E30E9465100E94561113
:10127000089540E067E18CE30E94651040E068E17A
:101280008CE30E94651040E069E18CE30E946510E8
:1012900040E06AE18CE30E94651040E06BE18CE382
:1012A0000E94651040E06CE18CE30E94651040E014
:1012B0006DE18CE30E94651040E06EE18CE30E94DA
:1012C000651040E06FE18CE30E94651040E067E14B
:1012D0008DE30E94651040E068E18DE30E94651097
:1012E00040E069E18DE30E94651040E06AE18DE332
:1012F0000E94651040E06BE18DE30E94651040E0C4
:101300006CE18DE30E94651040E06DE18DE30E9489
:10131000651040E06EE18DE30E94651040E06FE1F2
:101320008DE30E94651040E067E18EE30E94651046
:1013300040E068E18EE30E94651040E069E18EE3E1
:101340000E94651040E06AE18EE30E94651040E073
:101350006BE18EE30E94651040E06CE18EE30E9439
:10136000651040E06DE18EE30E94651040E06EE1A3
:101370008EE30E94651040E06FE18EE30E946510ED
:1013800040E067E18FE30E94651040E068E18FE391
:101390000E94651040E069E18FE30E94651040E023
:1013A0006AE18FE30E94651040E06BE18FE30E94E9
:1013B000651040E06CE18FE30E94651040E06DE154
:1013C0008FE30E94651040E06EE18FE30E9465109C
:1013D00040E06FE18FE30E94651040E067E180E448
:1013E0000E94651040E068E180E40E94651040E0E2
:1013F00069E180E40E94651040E06AE180E40E94B7
:10140000651040E06BE180E40E94651040E06CE113
:1014100080E40E94651040E06DE180E40E94651068
:1014200040E06EE180E40E94651040E06FE180E4FE
:101430000E94651040E067E181E40E94651040E091
:1014400068E181E40E94651040E069E181E40E9466
:10145000651040E06AE181E40E94651040E06BE1C4
:1014600081E40E94651040E06CE181E40E94651017
:1014700040E06DE181E40E94651040E06EE181E4AE
:101480000E94651040E06FE181E40E94651040E039
:1014900067E182E40E94651040E068E182E40E9416
:1014A000651040E069E182E40E94651040E06AE175
:1014B00082E40E94651040E06BE182E40E946510C6
:1014C00040E06CE182E40E94651040E06DE182E45E
:1014D0000E94651040E06EE182E40E94651040E0E9
:1014E0006FE182E40E94651040E067E183E40E94BE
:1014F000651040E068E183E40E94651040E069E126
:1015000083E40E94651040E06AE183E40E94651074
:1015100040E06BE183E40E94651040E06CE183E40D
:101520000E94651040E06DE183E40E94651040E098
:101530006EE183E40E94651040E06FE183E40E9465
:10154000651040E067E184E40E94651040E068E1D6
:1015500084E40E94651040E069E184E40E94651023
:1015600040E06AE184E40E94651040E06BE184E4BD
:101570000E94651040E06CE184E40E94651040E048
:101580006DE184E40E94651040E06EE184E40E9415
:10159000651040E06FE184E40E94651040E067E17F
:1015A00085E40E94651040E068E185E40E946510D2
:1015B00040E069E185E40E94651040E06AE185E46D
:1015C0000E94651040E06BE185E40E94651040E0F8
:1015D0006CE185E40E94651040E06DE185E40E94C5
:1015E000651040E06EE185E40E94651040E06FE127
:1015F00085E40E94651040E067E186E40E94651082
:1016000040E068E186E40E94651040E069E186E41C
:101610000E94651040E06AE186E40E94651040E0A7
:101620006BE186E40E94651040E06CE186E40E9474
:10163000651040E06DE186E40E94651040E06EE1D7
:1016400086E40E94651040E06FE186E40E94651028
:1016500040E067E187E40E94651040E068E187E4CC
:101660000E94651040E069E187E40E94651040E057
:101670006AE187E40E94651040E06BE187E40E9424
:10168000651040E06CE187E40E94651040E06DE188
:1016900087E40E94651040E06EE187E40E946510D7
:1016A00040E06FE187E40E94651040E067E188E474
:1016B0000E94651040E068E188E40E94651040E007
:1016C00069E188E40E94651040E06AE188E40E94D4
:1016D000651040E06BE188E40E94651040E06CE139
:1016E00088E40E94651040E06DE188E40E94651086
:1016F00040E06EE188E40E94651040E06FE188E41C
:101700000E94651040E067E189E40E94651040E0B6
:1017100068E189E40E94651040E069E189E40E9483
:10172000651040E06AE189E40E94651040E06BE1E9
:1017300089E40E94651040E06CE189E40E94651034
:1017400040E06DE189E40E94651040E06EE189E4CB
:101750000E94651040E06FE189E40E94651040E05E
:1017600067E18AE40E94651040E068E18AE40E9433
:10177000651040E069E18AE40E94651040E06AE19A
:101780008AE40E94651040E06BE18AE40E946510E3
:1017900040E06CE18AE40E94651040E06DE18AE47B
:1017A0000E94651040E06EE18AE40E94651040E00E
:1017B0006FE18AE40E94651040E067E18BE40E94DB
:1017C000651040E068E18BE40E94651040E069E14B
:1017D0008BE40E94651040E06AE18BE40E94651092
:1017E00040E06BE18BE40E94651040E06CE18BE42B
:1017F0000E94651040E06DE18BE40E94651040E0BE
:101800006EE18BE40E94651040E06FE18BE40E9482
:10181000651040E067E18CE40E94651040E068E1FB
:101820008CE40E94651040E069E18CE40E94651040
:1018300040E06AE18CE40E94651040E06BE18CE4DA
:101840000E94651040E06CE18CE40E94651040E06D
:101850006DE18CE40E94651040E06EE18CE40E9432
:10186000651040E06FE18CE40E94651040E067E1A4
:101870008DE40E94651040E068E18DE40E946510EF
:1018800040E069E18DE40E94651040E06AE18DE48A
:101890000E94651040E06BE18DE40E94651040E01D
:1018A0006CE18DE40E94651040E06DE18DE40E94E2
:1018B000651040E06EE18DE40E94651040E06FE14C
:1018C0008DE40E94651040E067E18EE40E9465109F
:1018D00040E068E18EE40E94651040E069E18EE43A
:1018E0000E94651040E06AE18EE40E94651040E0CD
:1018F0006BE18EE40E94651040E06CE18EE40E9492
:10190000651040E06DE18EE40E94651040E06EE1FC
:101910008EE40E94651040E06FE18EE40E94651045
:101920000E94561108950F931F93CF93DF93CC9984
:101930000CC060E080E00E94511161E084EA90E018
:101940000E943E110E9456110BC060E080E00E9490
:10195000511161E085EB90E00E943E110E9456110A
:101960004AE050E06AEC70E08091D1009091D200A2
:101970000E947C1169E187E00E94511161E08AECCC
:1019800090E00E943E1169E184E10E94511161E002
:1019900087EC90E00E943E114AE050E06CED70E070
:1019A0008091E3009091E4000E947C1169E185E25E
:1019B0000E94511161E08CED90E00E943E1169E1BE
:1019C00086E30E94511161E087EC90E00E943E1195
:1019D0004AE050E06EEE70E08091F5009091F600E4
:1019E0000E947C1169E183E40E94511161E08EEE56
:1019F00090E00E943E110E9456110E94500178947E
:101A0000C1E0D0E00CE310E08091FC02882351F0AB
:101A10001092FC02D0930101C093000185E38A95E6
:101A2000F1F700008091000190910101019709F008
:101A300075C08091F5009091F600009709F101972B
:101A40009093F6008093F5000E9439094AE050E037
:101A50006EEE70E08091F5009091F6000E947C118E
:101A600069E183E40E94511161E08EEE90E00E94F2
:101A70003E110E94561110920101109200014EC0B9
:101A80008091E3009091E400009709F10197909311
:101A9000E4008093E3000E94B2054AE050E06CED60
:101AA00070E08091E3009091E4000E947C1169E174
:101AB00085E20E94511161E08CED90E00E943E11A0
:101AC0000E9456111093F6000093F50027C08091F4
:101AD000D1009091D200009779F101979093D200B4
:101AE0008093D1000E9402024AE050E06AEC70E06C
:101AF0008091D1009091D2000E947C1169E187E031
:101B00000E94511161E08AEC90E00E943E110E9417
:101B100056111093E4000093E30076CF8091D1003A
:101B20009091D200892B09F06FCF8091E3009091C2
:101B3000E400892B09F068CF8091F5009091F600C0
:101B4000892B09F061CFDF91CF911F910F910895FB
:101B5000CC9922C081E082BB8091FE009091FF0071
:101B60009093F6008093F5008091EC009091ED0049
:101B70009093E4008093E3008091DA009091DB0081
:101B80009093D2008093D1000E94930C12BA0E94CD
:101B900052100E94561108950E945210089540E07C
:101BA00061E286E40E94651040E062E286E40E9401
:101BB000651040E063E286E40E94651040E064E264
:101BC00086E40E94651040E061E287E40E946510AF
:101BD00040E062E287E40E94651040E063E287E44F
:101BE0000E94651040E064E287E40E94651040E0D6
:101BF00061E288E40E94651040E062E288E40E94AD
:101C0000651040E063E288E40E94651040E064E211
:101C100088E40E94651040E061E289E40E9465105A
:101C200040E062E289E40E94651040E063E289E4FA
:101C30000E94651040E064E289E40E94651040E083
:101C400061E28AE40E94651040E062E28AE40E9458
:101C5000651040E063E28AE40E94651040E064E2BF
:101C60008AE40E94651040E061E28BE40E94651006
:101C700040E062E28BE40E94651040E063E28BE4A6
:101C80000E94651040E064E28BE40E9465100E94AF
:101C900056110895C99924C08091FE009091FF00CB
:101CA000CB9708F052C00E9439098091FE009091B4
:101CB000FF0001969093FF008093FE004AE050E001
:101CC00067EF70E00E947C1169E183E40E9451118A
:101CD00061E087EF90E00E943E110E945611089546
:101CE000CA9923C08091FE009091FF00892B69F171
:101CF0000E9439098091FE009091FF000197909316
:101D0000FF008093FE004AE050E067EF70E00E9421
:101D10007C1169E183E40E94511161E087EF90E05A
:101D20000E943E110E9456110895CB990EC08FE477
:101D300093EC0197F1F700C0000082E090E09093EF
:101D40006100809360000E94CF0D089540E061E241
:101D500088E20E94651040E062E288E20E9465101D
:101D600040E063E288E20E94651040E064E288E2BD
:101D70000E94651040E061E289E20E94651040E047
:101D800062E289E20E94651040E063E289E20E941B
:101D9000651040E064E289E20E94651040E061E283
:101DA0008AE20E94651040E062E28AE20E946510C9
:101DB00040E063E28AE20E94651040E064E28AE269
:101DC0000E94651040E061E28BE20E94651040E0F5
:101DD00062E28BE20E94651040E063E28BE20E94C7
:101DE000651040E064E28BE20E94651040E061E231
:101DF0008CE20E94651040E062E28CE20E94651075
:101E000040E063E28CE20E94651040E064E28CE214
:101E10000E94651040E061E28DE20E94651040E0A2
:101E200062E28DE20E94651040E063E28DE20E9472
:101E3000651040E064E28DE20E9465100E94561138
:101E40000895C99924C08091EC009091ED00CB9742
:101E500008F052C00E94B2058091EC009091ED0014
:101E600001969093ED008093EC004AE050E065EE1F
:101E700070E00E947C1169E183E20E94511161E0EF
:101E800085EE90E00E943E110E9456110895CA9975
:101E900023C08091EC009091ED00892B69F10E94A4
:101EA000B2058091EC009091ED0001979093ED00C8
:101EB0008093EC004AE050E065EE70E00E947C11F7
:101EC00069E183E20E94511161E085EE90E00E9499
:101ED0003E110E9456110895CB990EC08FE493ECE9
:101EE0000197F1F700C0000083E090E0909361005B
:101EF000809360000E94A60E089581E081BB1ABA0B
:101F00008EE18BBB0E94500178940E9411100E94B8
:101F10005B0180916000909161008130910549F4EE
:101F20000E944A0E80916000909161000197C1F378
:101F3000F0CF82309105A1F461E288E20E94511154
:101F400061E08DE890E00E943E110E9456110E94CF
:101F5000210F8091600090916100029769F3D9CFC1
:101F600083309105A1F461E28AE00E94511161E0A1
:101F70008DE890E00E943E110E9456110E945C057F
:101F80008091600090916100039769F3C2CF04973C
:101F900009F0BFCF8091FE009091FF009093F60072
:101FA0008093F5008091EC009091ED009093E40017
:101FB0008093E3008091DA009091DB009093D2004F
:101FC0008093D1000E949C0181E28A95F1F7000084
:101FD0000E94930C0E94A80D80E090E00895C198A3
:101FE000662311F0C39A15C0C39813C0AC01022E2A
:101FF00002C0559547950A94E2F740FF02C0C49A83
:1020000001C0C498C59AC5982150310978F7C19A82
:10201000089527E030E090E0E9CF60E00E94EF0F04
:102020000895CF93DF93B99ABA9ABB9ABC9ABD9A96
:10203000C29AC19A83EC99E00197F1F700C00000C1
:10204000C2988BE594E40197F1F700C00000C29AB2
:10205000C19881E20E940D1083E10E940D1086E07C
:102060000E940D1082EC0E940D1080E20E940D1063
:1020700089E00E940D1080E80E940D1080E40E940B
:102080000D10C8EFD1E061E080E00E94EF0F2197D2
:10209000D1F788E00E940D108CE00E940D10DF91B6
:1020A000CF91089580E80E940D1080E40E940D10E9
:1020B0001092FA021092FB02E2E0F1E08AEF92E065
:1020C0001192E817F907E1F70895262F269526952E
:1020D000269590E034E5239F800D911D1124442323
:1020E00079F0FC01EE5FFE4F677081E090E002C086
:1020F000880F991F6A95E2F79081892B8083089554
:10210000FC01EE5FFE4F677081E090E002C0880F37
:10211000991F6A95E2F780959081892380830895BD
:102120005F926F927F928F929F92AF92BF92CF9267
:10213000DF92EF92FF920F931F93CF93DF93562E70
:10214000262F30E04901880C991C880C991C820EBE
:10215000931E181419040CF05DC08901000F111FA3
:10216000000F111F000F111F021B130B612CA82E53
:10217000B12CC50180975C01AA0CBB1CAA0CBB1C2E
:10218000A80EB91E0F2EFBEFCF2EF2E0DF2EF02DA2
:102190000F2EFAEFEF2EF2E0FF2EF02D2DC0FE01F4
:1021A000249130E0872D652D0E94701102C0359575
:1021B00027958A95E2F720FF0AC0F6016081670D36
:1021C000F701808141E0860D0E94651009C0F6018B
:1021D0006081670DF701808140E0860D0E946510E7
:1021E0007394872D90E080179107CCF26394862D2D
:1021F00090E08815990574F410161106BCF7862D29
:10220000652D0E947011E501C80FD11DCC5ADF4F1A
:10221000712CC5CF8091FA0291E0980F852D880F1F
:10222000880F850D890F843518F48093FA020EC04B
:102230001092FA02EBEFF2E0808191E0980F852D89
:10224000880F880F880F8519890F80838091FB0282
:10225000803320F01092FA021092FB02DF91CF91AE
:102260001F910F91FF90EF90DF90CF90BF90AF90B4
:102270009F908F907F906F905F9008951F93CF9362
:10228000DF93EC018881882341F0162F2196612F7E
:102290000E94901089918111FACFDF91CF911F9107
:1022A00008958093FA026093FB0208950F931F93A1
:1022B000CF93DF9380E80E940D1080E40E940D1000
:1022C000C2E0D1E00AEF12E061E089910E94EF0FD5
:1022D000C017D107C9F7DF91CF911F910F910895D2
:1022E000991B79E004C0991F961708F0961B881F68
:1022F0007A95C9F7809508954532510520F442300A
:1023000010F00C948711FB011082CB010895BB27BC
:102310004A3031F4992322F4BDE2909581959F4F84
:102320000C949311BB27FB015527AA27880F991FEF
:10233000AA1FA41710F0A41B83955051B9F7A05DF4
:10234000AA3308F0A95DA193009779F7B111B19371
:102350001192CB010C94AC11DC01FC01672F71913F
:102360007723E1F7329704C07C916D93708362917B
:0C237000AE17BF07C8F30895F894FFCF24
:10237C00010053414D4F4D00546563686E6F6C6F97
:10238C0067696573005345542054494D453A2D00F7
:10239C003030203A203030203A203030005E00536C
:1023AC0054415254494E472054494D455200330034
:1023BC0032003100456E61626C652053776974633D
:1023CC00683A4F4E00456E61626C652053776974B4
:0A23DC0063683A4F4646003A0000DD
:00000001FF
